:020000040800F2
:1000000040B30024E1020008D1DD000841D500081A
:10001000C9DD0008990600085969010800000000C0
:1000200000000000000000000000000081EE000859
:10003000891F00080000000011E70008E1F5000832
:10004000FB020008FB020008FB020008FB0200089C
:10005000FB020008FB020008FB020008FB0200088C
:10006000FB020008FB020008FB020008291200083E
:1000700039120008491200085912000869120008D4
:100080007912000889120008FB02000819210008F3
:10009000B1210008FB020008FB020008FB02000877
:1000A000FB020008FB020008FB020008FB0200083C
:1000B00031F80008FB020008FB020008FB02000800
:1000C000FB020008FB020008FB020008FB0200081C
:1000D00091EC0008FB02000811120108FB02000865
:1000E000FB020008FB02000800000000FB02000801
:1000F000FB020008FB020008FB020008FB020008EC
:10010000FB020008FB020008FB020008FB020008DB
:10011000FB02000801010108FB020008FB020008C5
:10012000FB020008FB020008FB020008FB020008BB
:10013000FB020008FB020008FB020008FB020008AB
:1001400000000000000000000000000000000000AF
:10015000FB020008FB020008FB020008FB0200088B
:10016000FB020008FB020008FB020008FB0200087B
:10017000FB02000849DE0008FB0200080000000046
:10018000FB020008FB020008FB020008FB0200085B
:10019000FB020008FB020008FB020008FB0200084B
:1001A000FB020008FB020008FB0200080000000040
:1001B000FB020008FB020008FB020008FB0200082B
:1001C000FB020008FB020008000000000000000025
:1001D0000000000000000000FB020008000000001A
:1001E000000000000000000000000000000000000F
:1001F0000000000000000000FB020008FB020008F5
:10020000FB020008FB02000800000000FB020008DF
:10021000FB020008FB020008FB020008FB020008CA
:10022000FB02000800000000FB02000800000000C4
:10023000FB020008FB02000800000000FB020008AF
:10024000FB020008FB020008FB020008FB0200089A
:10025000FB020008FB020008FB020008FB0200088A
:10026000FB020008FB020008FB020008FB0200087A
:10027000FB020008FB020008FB020008000000006F
:10028000FB020008FB020008FB020008FB0200085A
:1002900000000000FB020008FB0200080000000054
:1002A00000000000FB020008FB020008FB0200083F
:1002B00001120108FB020008FB02000849220008A5
:1002C000FB020008FB020008FB020008DFF80CD06C
:1002D00000F08CF800480047696E010840B3002424
:1002E0000648804706480047FEE7FEE7FEE7FEE7D0
:1002F000FEE7FEE7FEE7FEE7FEE7FEE7F1F60008B1
:10030000CD0200082DE9F05F0546002092469B468D
:1003100088460646814640241BE02846414647461B
:10032000224600F053F853465A46C01A914110D362
:1003300011461846224600F03AF82D1A67EB0108DC
:100340004F4622460120002100F031F817EB00094A
:100350004E41201EA4F10104DFDC484631462A4606
:100360004346BDE8F09F40EA01039B0703D009E044
:1003700008C9121F08C0042AFAD203E011F8013B91
:1003800000F8013B521EF9D27047D2B201E000F8EA
:10039000012B491EFBD270470022F6E710B5134629
:1003A0000A4604461946FFF7F0FF204610BD202AF2
:1003B00004DB203A00FA02F1002070479140C2F1BC
:1003C000200320FA03F3194390407047202A04DBEE
:1003D000203A21FA02F00021704721FA02F3D040BE
:1003E000C2F120029140084319467047064C074D60
:1003F00006E0E06840F0010394E8070098471034F5
:10040000AC42F6D3FFF766FF7886010898860108AC
:1004100030B58C1810F8012B12F00F0301D110F831
:10042000013B120906D110F8012B03E010F8015B23
:1004300001F8015B5B1EF9D101E001F8013B521E9E
:10044000FBD1A142E6D3002030BD00000000000037
:1004500080B540F60000C5F602000122114606F004
:10046000CBFD80BD0000000080B540F60000C5F661
:1004700002000121002206F0BFFD80BD0000000047
:1004800080B540F60000C5F602000821012206F002
:10049000B3FD80BD0000000080B540F60000C5F649
:1004A00002000821002206F0A7FD80BD0000000028
:1004B00080B584B003908DF80B10039840F6883116
:1004C000C2F20041086042F22011C2F200410191E3
:1004D0000020087016F0E8FA0199024608781043E7
:1004E000087016F0C1FB01990246087810430870A5
:1004F0009DF80B0038B1FFE740F64830C2F20040EB
:1005000000F06EF931E040F64831C2F2004100914E
:1005100041F20300C3F6B83048624CF60860C3F6F7
:100520008D2088624AF28B00C3F60B00C86240F24D
:100530001060C3F65D60086341F60400CBF6D2603C
:1005400048630020886348F27A40C4F21D10C863F3
:1005500091ED0F1A9FED080A80EE010A81ED080A5D
:100560000020C4F220208861FFE742F22010C2F28E
:100570000040007804B080BDC3F51C4100000000BD
:1005800080B584B08DF80F0002918DF807209DF89A
:100590000F0040F0800000F02BF8FFE79DF8070007
:1005A00070B1FFE7552000F023F802990870029817
:1005B000013002909DF8070001388DF80700EDE743
:1005C00004B080BD0000000080B582B08DF8070047
:1005D00000919DF8070040F0800000F009F85520D8
:1005E00000F006F80099087002B080BD000000001D
:1005F00080B582B08DF8070040F68830C2F2004026
:1006000000686A464FF47A7111600DF107010DF12F
:10061000060201230BF00CF99DF8060002B080BD24
:1006200080B582B08DF807008DF806109DF80700A0
:10063000FFF7DEFF9DF80600FFF7DAFF02B080BD8E
:1006400080B540F20001C2F2004101F1120243F212
:100650004C10C2F20040122310F0E2FD40F22401DF
:10066000C2F2004101F1100243F2B800C2F20040B0
:10067000102310F0D5FD40F24401C2F2004101F117
:100680001F0243F22400C2F200401F2310F0C8FDF5
:1006900080BD000000000000FFE7FEE70000000052
:1006A00084B08DF80F000291ADF806209DF80F0080
:1006B0000146009123281DD80099DFE801F01213AC
:1006C0001415161B1B1B1B1B1B1B1B1B1B1B1B1B8C
:1006D0001B1B1B1B1B1B1B1B1B1B1B1B1B1B171871
:1006E000191A08E007E006E005E004E003E002E094
:1006F00001E000E0FFE7002004B0704700000000C8
:10070000002070470000000080B582B042F2F41073
:10071000C2F20040009041F61811C2F200410022DE
:10072000019211F0E9FA009841F21811C2F2004169
:1007300011F0C2FA019802B080BD00000000000074
:1007400080B582B0019000910098008814F0C4FA3E
:10075000002002B080BD000083B0029001918DF8AE
:10076000032000208DF802009DF9020003B07047BD
:1007700080B586B00490ADF80E1000208DF80D0005
:1007800042F2F410C2F20040D0F8BC02029002988B
:10079000D0F8140220B1FFE701208DF8170013E014
:1007A0000499BDF80E2042F2F410C2F2004001900C
:1007B00011F0A2FA019811F0ABFB8DF80D009DF835
:1007C0000D008DF81700FFE79DF8170006B080BDFB
:1007D00080B582B00190FFE716F002FBFCE7000055
:1007E00080B592B01190002010900F9001F0E0FAC7
:1007F00040F6B030C2F2004080ED000AFFE701F0A1
:10080000D7FA40F6B030C2F2004090ED001A30EE58
:10081000410AB2EE041AB4EE410AF1EE10FA1EDDFE
:10082000FFE7119941F20300C3F6B830486211990D
:100830004CF60860C3F68D20886211994AF28B004D
:10084000C3F60B00C862119948F27A40C4F21D1039
:10085000C86311990020C4F220208861ECE29FED6A
:10086000E70A01F079FA11990020C86311994862EA
:10087000119988621199C862ADF81200FFE7BDF8BE
:10088000120040F69401C2F200410988884280F2C9
:10089000DF81FFE7FFF7E8FD9220FFF7A9FE1220B6
:1008A0000FA902910622FFF76BFEFFF7D1FD9DF81D
:1008B0003C009DF83D1040EA0120ADF83A00BDF93A
:1008C0003A0000EE100AB8EEC00A40F68800C2F204
:1008D000004090ED001A20EE010A119981ED000A06
:1008E0009DF83E109DF83F2041EA0221ADF83A10F4
:1008F000BDF93A1000EE101AB8EEC00A90ED001AD9
:1009000020EE010A119981ED010A9DF840109DF831
:10091000412041EA0221ADF83A10BDF93A1000EE4B
:10092000101AB8EEC00A90ED001A20EE010A1198D4
:1009300080ED020A119890ED002A90ED010A90EDE9
:10094000021A20EE000A02EE020A01EE010A17F076
:10095000BFFC8DED070A9DED071A119890ED0F0A67
:1009600030EE010A80ED0F0AFFF796FD0299002094
:100970000822FFF705FEFFF783FD9DF83C000F28D6
:100980005FD1FFE79DF83E009DF83F1040EA01204F
:10099000ADF83A00BDF93A0000EE100AB8EEC00A10
:1009A00040F68C00C2F2004090ED001A20EE010AE1
:1009B000119981ED030A119991ED031A91ED090A3C
:1009C00030EE010A81ED090A9DF840109DF84120A2
:1009D00041EA0221ADF83A10BDF93A1000EE101AC2
:1009E000B8EEC00A90ED001A20EE010A119981EDCF
:1009F000040A119991ED041A91ED0A0A30EE010AE8
:100A000081ED0A0A9DF842109DF8432041EA022137
:100A1000ADF83A10BDF93A1000EE101AB8EEC00A5F
:100A200090ED001A20EE010A119880ED050A119848
:100A300090ED051A90ED0B0A30EE010A80ED0B0ADD
:100A4000FFE7BDF8120038BBFFE70798069007984C
:100A5000059000208DF81100FFE79DF81100022895
:100A600019DCFFE711989DF8112000EB8200C068A7
:100A70000BA941F8220011989DF8112000EB82008B
:100A8000C06808A941F82200FFE79DF81100013075
:100A90008DF81100E1E762E09DED070A9DED061A71
:100AA000B4EE410AF1EE10FA03DDFFE70798069075
:100AB000FFE79DED070A9DED051AB4EE410AF1EE40
:100AC00010FA03DAFFE707980590FFE700208DF89A
:100AD0001000FFE79DF8100002283FDCFFE71198A7
:100AE0009DF8101000EB810090ED030A0BA800EBBD
:100AF000810090ED001AB4EE410AF1EE10FA0ADD21
:100B0000FFE711989DF8102000EB8200C0680BA948
:100B100041F82200FFE711989DF8101000EB8100CA
:100B200090ED030A08A800EB810090ED001AB4EEE6
:100B3000410AF1EE10FA0ADAFFE711989DF8102049
:100B400000EB8200C06808A941F82200FFE7FFE738
:100B50009DF8100001308DF81000BBE7FFE79DED18
:100B6000060A9DED051A30EE410A42F22410C2F247
:100B7000004080ED000A00208DF80F00FFE79DF88F
:100B80000F0002281DDCFFE79DF80F100BA800EBFB
:100B9000810090ED000A08A800EB810090ED001A9A
:100BA00030EE410A42F2E810C2F2004000EB810050
:100BB00080ED000AFFE79DF80F0001308DF80F006F
:100BC000DDE742F22410C2F2004090ED000AB6EEDA
:100BD000001AB4EE410AF1EE10FA2DDCFFE742F202
:100BE000E810C2F2004090ED000A9FEDE61AB4EE64
:100BF000410AF1EE10FA1FDC02E000BF0AD7A33B66
:100C000042F2E810C2F2004090ED010A9FEDDD1AB9
:100C1000B4EE410AF1EE10FA0EDCFFE742F2E81002
:100C2000C2F2004090ED020A9FEDD61AB4EE410ADE
:100C3000F1EE10FA01DDFFE70AE09FEDD30A01F0C3
:100C40008BF8FFE7BDF812000130ADF8120016E690
:100C500040F69400C2F20040008800EE100AB8EEA0
:100C6000401A119890ED0F0A80EE010A80ED0F0AEC
:100C700000208DF80E00FFE79DF80E0002281BDC17
:100C8000FFE740F69400C2F20040008800EE100A30
:100C9000B8EE401A11989DF80E1000EB810090ED0F
:100CA000090A80EE010A80ED090AFFE79DF80E00AF
:100CB00001308DF80E00DFE7FFF7D6FBA220FFF72B
:100CC00097FC22200FA90222FFF75AFCFFF7C0FB76
:100CD0009DF83C009DF83D10C00040EA5110ADF871
:100CE0003A00BDF93A00B0F5806F07DBFFE7BDF8C9
:100CF0003A00A0F50060ADF83A00FFE7BDF93A0010
:100D000000EE100AB8EEC01AB4EE002AB3EE070ADD
:100D100001EE020A119880ED060A42F21811C2F2A1
:100D20000041088801300880FFE742F22410C2F237
:100D3000004090ED000A0120B6EE001AB4EE410A20
:100D4000F1EE10FA019071DCFFE7119890ED0F0AB7
:100D50009FED8E1A30EE010AB0EEC00A0120B6EE09
:100D6000001AB4EE410AF1EE10FA01905EDCFFE7E2
:100D700042F2E810C2F2004090ED000A01209FED1F
:100D8000811AB4EE410AF1EE10FA01904EDCFFE751
:100D900042F2E810C2F2004090ED010A01209FEDFE
:100DA000791AB4EE410AF1EE10FA01903EDCFFE749
:100DB00042F2E810C2F2004090ED020A01209FEDDD
:100DC000711AB4EE410AF1EE10FA01902EDCFFE741
:100DD000119890ED090AB0EEC00A01209FED6C1A3F
:100DE000B4EE410AF1EE10FA01901FDCFFE7119812
:100DF00090ED0A0AB0EEC00A01209FED651AB4EE2C
:100E0000410AF1EE10FA019010DCFFE7119890ED25
:100E10000B0AB0EEC00A9FED5E1A0020B4EE410A44
:100E2000F1EE10FAC8BF01200190FFE70198C0075A
:100E300000287FF4E4ACFFE7119890ED0F1A9FEDC6
:100E4000550A80EE010A80ED080A0020ADF80C007A
:100E5000FFE7BDF80C0040F69601C2F20041098898
:100E6000884280F28C80FFE7FFF7FEFA9220FFF7BE
:100E7000BFFB12200FA90622FFF782FBFFF7E8FA5B
:100E80009DF83C009DF83D1040EA0120ADF83A0085
:100E9000BDF93A0000EE100AB8EEC00A40F688002C
:100EA000C2F2004090ED001A20EE010A119991ED76
:100EB000081A20EE010A81ED000A119991ED000A4D
:100EC00091ED0C1A9FED343A20EE030A9FED332A80
:100ED00001EE020A81ED0C0A9DF83E109DF83F20BC
:100EE00041EA0221ADF83A10BDF93A1000EE101AAD
:100EF000B8EEC00A90ED001A20EE010A119991EDAA
:100F0000081A20EE010A81ED010A119991ED010AFA
:100F100091ED0D1A20EE030A01EE020A81ED0D0A91
:100F20009DF840109DF8412041EA0221ADF83A10A9
:100F3000BDF93A1000EE101AB8EEC00A90ED001A92
:100F400020EE010A119890ED081A20EE010A80EDBA
:100F5000020A119890ED020A90ED0E1A20EE030A93
:100F600001EE020A80ED0E0A9FED070A00F0F4FE82
:100F7000FFE7BDF80C000130ADF80C0069E712B0D6
:100F800080BD00BF9A99193E6F12033ACDCC1CC1A7
:100F90000AD7233CC3F51C41CDCC4C3ECDCC4C3FB5
:100FA00083B00290029890ED0E0A9FED182A80EE11
:100FB000020A9FED171A80EE010AB1EE400A8DED8C
:100FC000010A029890ED280A80EE020A80EE010ADA
:100FD0008DED000A9DED000A9DED011A30EE010A2B
:100FE000B6EE001A20EE010A029880ED380A9DED57
:100FF000000A9DED011A30EE410A9FED061A80EEBF
:10100000010A029880ED3A0A03B0704733335B411E
:1010100079B060438FC2753E80B582B001900020E8
:101020008DF80300FFE79DF80300012811DCFFE7BE
:10103000019A9DF80300682110FB012001210A227A
:101040000EF0F2F8FFE79DF8030001308DF8030081
:10105000E9E74FF4FA7015F06FFF0199012081F86C
:101060000C0102B080BD000080B582B001900198F3
:1010700090F8D0000146009120B1FFE700980128C8
:1010800004D007E0019800F033F807E0019800F081
:101090001FF803E0019800F0B7F8FFE702B080BD49
:1010A00080B582B00190019890F80C0108B9FFE773
:1010B00009E0019890ED350AD0ED360A90ED371A27
:1010C00000F066FFFFE702B080BD000000000000F6
:1010D00080B582B00190019890ED400AD0ED410AB0
:1010E00090ED421A00F008F802B080BD0000000048
:1010F00081B0009001B0704784B003908DED020A7A
:10110000CDED010A8DED001AFFE79DED020A9FED7E
:101110003A1AB4EE410AF1EE10FA06DCFFE74CF69B
:10112000CD40CBF6CC60029010E09DED020A9FED21
:10113000331AB4EE410AF1EE10FA06DBFFE74CF683
:10114000CD40C3F6CC600290FFE7FFE7FFE7FFE783
:101150009DED010A9FED281AB4EE410AF1EE10FA56
:1011600006DCFFE74CF6CD40CBF6CC60019010E0FA
:101170009DED010A9FED211AB4EE410AF1EE10FA3D
:1011800006DBFFE74CF6CD40C3F6CC600190FFE7ED
:10119000FFE7FFE7FFE79DED000A9FED191AB4EEA8
:1011A000410AF1EE10FA06DCFFE740F6F970CCF2E6
:1011B0004900009010E09DED000A9FED121AB4EE78
:1011C000410AF1EE10FA06DBFFE740F6F970C4F2CF
:1011D00049000090FFE7FFE7FFE702980399C1F895
:1011E000D40001980399C1F8D80000980399C1F878
:1011F000DC0004B0704700BFCDCCCCBECDCCCC3E23
:10120000F90F49C0F90F494080B582B001900198AB
:101210009FED041AB0EE410AF0EE410AFFF76CFFB1
:1012200002B080BD0000000080B542F2D040C2F2A2
:10123000004002F0EDF980BD80B542F24850C2F2A4
:10124000004002F0E5F980BD80B542F2C050C2F224
:10125000004002F0DDF980BD80B542F22870C2F294
:10126000004002F0D5F980BD80B542F2A070C2F214
:10127000004002F0CDF980BD80B542F23860C2F284
:10128000004002F0C5F980BD80B542F2B060C2F204
:10129000004002F0BDF980BD83B002900298016861
:1012A00001201022C4F202029142009000F0A380BB
:1012B000FFE70298016801202822C4F2020291424D
:1012C000009000F09880FFE702980168012040221A
:1012D000C4F202029142009000F08D80FFE7029874
:1012E000016801205822C4F202029142009000F0ED
:1012F0008280FFE70298016801207022C4F2020296
:101300009142009077D0FFE702980168012088227F
:10131000C4F20202914200906DD0FFE7029801688A
:101320000120A022C4F202029142009063D0FFE7A4
:10133000029801680120B822C4F202029142009092
:1013400059D0FFE702980168012040F21042C4F230
:101350000202914200904ED0FFE7029801680120FE
:1013600040F22842C4F202029142009043D0FFE7CB
:1013700002980168012040F24042C4F20202914208
:10138000009038D0FFE702980168012040F25842EF
:10139000C4F20202914200902DD0FFE7029801684A
:1013A000012040F27042C4F202029142009022D029
:1013B000FFE702980168012040F28842C4F202026D
:1013C0009142009017D0FFE702980168012040F297
:1013D000A042C4F20202914200900CD0FFE70298B2
:1013E00000684FF64831CBF6FD710844B0FA80F042
:1013F00040090090FFE70098C00740B3FFE702985C
:10140000007810384AF6AB21CAF6AA21A0FB0110D9
:1014100000090190019800F0070148F2DC30C0F6A5
:101420000100405C0299C8650198042807D3FFE7D2
:1014300002990868042262F30900886506E00299AF
:10144000086840F2FF3290438865FFE705E00299A3
:10145000086820F0FF008865FFE70298806D03B000
:10146000704700000000000084B0039003980068FB
:10147000019003980168012045F20842C5F6020276
:10148000914200904ED0FFE703980168012045F299
:101490001C42C5F602029142009043D0FFE7039838
:1014A0000168012045F23042C5F6020291420090E7
:1014B00038D0FFE703980168012045F24442C5F6A1
:1014C0000202914200902DD0FFE7039801680120AD
:1014D00045F25842C5F602029142009022D0FFE741
:1014E00003980168012045F26C42C5F60202914260
:1014F000009017D0FFE703980168012045F2804271
:10150000C5F60202914200900CD0FFE703980068F4
:101510004AF66C31CAF2FD710844B0FA80F0400915
:101520000090FFE70098C00710B3FFE7039800782A
:1015300008384CF6CD41CCF6CC41A0FB0110000997
:101540000290029945F60000C5F6020000EB81000A
:1015500003990866039945F68000C5F602004866BF
:10156000029800F01F01012088400399886635E049
:101570000398007810384AF6AB21CAF6AA21A0FBDE
:10158000011000090290019840F2B841C4F2020132
:1015900088420CD8FFE7019840F21041C4F20201E2
:1015A000884204D3FFE7029808300290FFE70299CF
:1015B00040F60000C4F2020000EB810003990866C7
:1015C000039940F68000C4F202004866029800F0D9
:1015D0001F010120884003998866FFE704B0704727
:1015E00083B002900298007901900198002800F0E1
:1015F0008A80FFE70198082800F28580FFE70298BB
:101600000168012045F20842C5F6020291420090AD
:101610004ED0FFE702980168012045F21C42C5F652
:1016200002029142009043D0FFE702980168012036
:1016300045F23042C5F602029142009038D0FFE7F1
:1016400002980168012045F24442C5F60202914227
:1016500000902DD0FFE702980168012045F2584222
:10166000C5F602029142009022D0FFE7029801687D
:10167000012045F26C42C5F602029142009017D05B
:10168000FFE702980168012045F28042C5F6020298
:10169000914200900CD0FFE7029800684AF66C3146
:1016A000CAF2FD710844B0FA80F040090090FFE7EB
:1016B0000098C00780B1FFE7019945F6FC00C5F628
:1016C000020000EB81000299C866029945F64010BD
:1016D000C5F6020008670FE0019940F6FC00C4F26D
:1016E000020000EB81000299C866029940F64010A2
:1016F000C4F202000867FFE70198411E01208840FC
:1017000002994867FFE703B070470000000000003F
:1017100085B0049000208DF80F000498806918BBF4
:10172000FFE70498806A029003281BD80299DFE83B
:1017300001F0020D0218049890F82F00C00720B1A4
:10174000FFE701208DF80F00FFE70CE00498C06A66
:10175000B0F1C07F04D1FFE701208DF80F00FFE753
:1017600001E000E0FFE747E004988069B0F5005F22
:1017700026D1FFE70498806A019003281ED80199BA
:10178000DFE801F00206021101208DF80F0016E0DB
:10179000049890F82F00C00720B1FFE701208DF8D2
:1017A0000F00FFE70BE00498C06AB0F1C07F04D1DE
:1017B000FFE701208DF80F00FFE700E0FFE71AE0E8
:1017C0000498806A0090032804D3FFE70098032858
:1017D00004D00EE001208DF80F000BE0049890F883
:1017E0002F00C00720B1FFE701208DF80F00FFE7B1
:1017F00000E0FFE7FFE7FFE79DF80F0005B0704747
:1018000089B008900791069205930898806D04901E
:101810000898806D03900898016801201022C4F296
:1018200002029142029000F00381FFE708980168EC
:1018300001202822C4F202029142029000F0F880B6
:10184000FFE70898016801204022C4F20202914299
:10185000029000F0ED80FFE708980168012058220F
:10186000C4F202029142029000F0E280FFE7089881
:10187000016801207022C4F202029142029000F03D
:10188000D780FFE70898016801208822C4F202028D
:101890009142029000F0CC80FFE708980168012097
:1018A000A022C4F202029142029000F0C180FFE740
:1018B000089801680120B822C4F202029142029005
:1018C00000F0B680FFE708980168012040F210425E
:1018D000C4F202029142029000F0AA80FFE7089849
:1018E0000168012040F22842C4F2020291420290B3
:1018F00000F09E80FFE708980168012040F2404216
:10190000C4F202029142029000F09280FFE7089830
:101910000168012040F25842C4F202029142029052
:1019200000F08680FFE708980168012040F27042CD
:10193000C4F20202914202907AD0FFE7089801684F
:10194000012040F28842C4F20202914202906FD01C
:10195000FFE708980168012040F2A042C4F20202A9
:101960009142029064D0FFE708980168012040F29C
:10197000B842C4F202029142029059D0FFE708989F
:101980000168012045F20842C5F602029142029028
:101990004ED0FFE708980168012045F21C42C5F6C9
:1019A00002029142029043D0FFE7089801680120AB
:1019B00045F23042C5F602029142029038D0FFE76C
:1019C00008980168012045F24442C5F6020291429E
:1019D00002902DD0FFE708980168012045F2584297
:1019E000C5F602029142029022D0FFE708980168F2
:1019F000012045F26C42C5F602029142029017D0D6
:101A0000FFE708980168012045F28042C5F602020E
:101A1000914202900CD0FFE7089800684AF66C31BA
:101A2000CAF2FD710844B0FA80F040090290FFE765
:101A30000298C00770B1FFE70898416E806E486059
:101A40000898C06E28B1FFE70898016F406F4860A2
:101A5000FFE7FFE70898016801201022C4F20202A4
:101A60009142019000F0A380FFE7089801680120EF
:101A70002822C4F202029142019000F09880FFE710
:101A80000898016801204022C4F2020291420190AC
:101A900000F08D80FFE70898016801205822C4F209
:101AA00002029142019000F08280FFE708980168ED
:101AB00001207022C4F202029142019077D0FFE728
:101AC0000898016801208822C4F202029142019024
:101AD0006DD0FFE7089801680120A022C4F202023D
:101AE0009142019063D0FFE7089801680120B82275
:101AF000C4F202029142019059D0FFE708980168B0
:101B0000012040F21042C4F20202914201904ED0F4
:101B1000FFE708980168012040F22842C4F202025F
:101B20009142019043D0FFE708980168012040F2FC
:101B30004042C4F202029142019038D0FFE7089877
:101B40000168012040F25842C4F202029142019021
:101B50002DD0FFE708980168012040F27042C4F2DE
:101B600002029142019022D0FFE70898016801200B
:101B700040F28842C4F202029142019017D0FFE77E
:101B800008980168012040F2A042C4F2020291428A
:101B900001900CD0FFE7089800684FF64831CBF66B
:101BA000FD710844B0FA80F040090190FFE7019808
:101BB000C00750B3FFE70898C06D00F01F013F2039
:101BC00088400499886008980168086820F480209B
:101BD0000860059808990968486008988068402856
:101BE00009D1FFE70698089909688860079808995D
:101BF0000968C86008E0079808990968886006982D
:101C000008990968C860FFE782E008980168012028
:101C100045F20842C5F60202914200904ED0FFE71D
:101C200008980168012045F21C42C5F60202914263
:101C3000009043D0FFE708980168012045F2304248
:101C4000C5F602029142009038D0FFE7089801687B
:101C5000012045F24442C5F60202914200902DD087
:101C6000FFE708980168012045F25842C5F60202D4
:101C70009142009022D0FFE708980168012045F2C8
:101C80006C42C5F602029142009017D0FFE7089817
:101C90000168012045F28042C5F60202914200909F
:101CA0000CD0FFE7089800684AF66C31CAF2FD7163
:101CB0000844B0FA80F040090090FFE70098C007A0
:101CC00020B3FFE70898C06D00F01F010120884095
:101CD00003994860059808990968486008988068E1
:101CE000402809D1FFE70698089909688860079895
:101CF00008990968C86008E0079808990968886029
:101D0000069808990968C860FFE700E0FFE7FFE769
:101D100009B070470000000081B041F20400CEF22B
:101D2000000000680090009840F6A831C2F200411F
:101D30000968884208D2FFE740F6AC31C2F20041A0
:101D4000086801300860FFE7009840F6A831C2F249
:101D50000041086001B0704783B08DED020A41F286
:101D60000400CEF200000068019002980090FFE7A6
:101D700041F20400CEF2000000680199401A00EE22
:101D8000100AB8EE400A9DED001A40F69030C2F2FB
:101D9000004090ED002AB8EE422A21EE021AB4EE7D
:101DA000410AF1EE10FA01DAFFE7E1E703B070470C
:101DB00080B582B000F068F840F6D840C2F200402A
:101DC00090ED000AB8EE400A818801EE101AB8EED4
:101DD000C11A9FED092A01EE020AC08801EE100A1D
:101DE000B8EEC11A9FED052A01EE020A8DED010A37
:101DF0009DED010A02B080BD6F12833ABD37863572
:101E000081B000904EF6FC51CEF20001086840F01F
:101E10008070086041F20401CEF2000100200860E9
:101E200041F20002CEF20002116841F0010111609E
:101E3000009944F24022C0F20F024A4340F690312A
:101E4000C2F200410A600A6844F6D353C1F2620349
:101E5000A2FB0332920940F69433C2F200431A60A7
:101E600009684DF68362C4F21B32A1FB0221890C82
:101E700040F69832C2F20042116040F6AC31C2F234
:101E80000041086001B07047B0B586B041F204006F
:101E9000CEF2000000680590FFF73EFF40F6AC3040
:101EA000C2F2004001680598002302934FF0FF3C06
:101EB0001A46E1FB0C0240F6A031C2F2004100914B
:101EC0004A6008600868496840F69034C2F20044ED
:101ED0002268FEF717FA029B02468C46009940F6EC
:101EE000B830C2F20040C0F804C00260D1F800C0AF
:101EF0004968D0F800E042682468AEFB04E502FBC4
:101F00000452BCEB0E0C61EB020240F6C031C2F28F
:101F100000410391C1F800C04A60006840F6D84211
:101F2000C2F20042049210600868496840F6943298
:101F3000C2F2004201921268FEF7E4F9DDF804C033
:101F4000029B049A01460398918001684068928838
:101F5000DCF800C002FB0CF28A1A60F1000040F6C7
:101F6000C831C2F200410A6048600868496840F61A
:101F70009832C2F200421268FEF7C4F90499C88090
:101F800006B0B0BD00000000704700000000000077
:101F900080B58CB00B908DED0A0ACDED090A8DED60
:101FA000081A4CF28F20C3F6F55007909DED080AF1
:101FB000B1EE400A8DED080A9DED0A0A9DED081A62
:101FC0009DED072A01EE420A8DED060A9DED0A0AF3
:101FD0009DED081A9DED072A01EE020A8DED050A16
:101FE0009DED060A9FED231A20EE010A8DED040AED
:101FF0009DED050A20EE010A8DED030A9DED040A10
:102000009FED1D1A20EE410ABDEEC00A10EE100A27
:10201000ADF80A009DED030A20EE010ABDEEC00AEC
:1020200010EE100AADF80800BDF90A0000EE100A23
:10203000B8EEC00A0B9880ED3B0ABDF9080000EE2F
:10204000100AB8EEC00A0B9880ED3C0A0B98BDF957
:102050000A1000220092032301930DF009F9009A5F
:10206000019B0B986830BDF908100DF001F90CB018
:1020700080BD00BF79B0604333335B410000000096
:1020800081B0EFF3108072B60090FFE7FEE700002A
:1020900080B58AB0002002900390022104910121B2
:1020A00005910690079042F61800C2F2004002A97E
:1020B00003F072FC18B1FFE7FFF7E2FFFFE76846A5
:1020C0000023036042F61800C2F2004002221146CB
:1020D00003F0EEFC18B1FFE7FFF7D2FFFFE742F68F
:1020E0001800C2F200400121002203F0CDFB18B11C
:1020F000FFE7FFF7C5FFFFE742F61800C2F2004016
:1021000004F022FD18B1FFE7FFF7BAFFFFE70AB0BE
:1021100080BD00000000000080B542F61800C2F249
:10212000004003F085FE80BD80B58AB0002002909B
:10213000012103910221049105910690079042F636
:10214000B800C2F2004002A903F026FC18B1FFE774
:10215000FFF796FFFFE768460023036042F6B800EA
:10216000C2F200400222114603F0A2FC18B1FFE7C0
:10217000FFF786FFFFE742F6B800C2F200401021E9
:10218000002203F081FB18B1FFE7FFF779FFFFE7BB
:1021900042F6B800C2F2004004F0D6FC18B1FFE7E6
:1021A000FFF76EFFFFE70AB080BD000000000000EF
:1021B00080B542F6B800C2F2004003F039FE80BD9F
:1021C00080B58AB000200290022103910491012180
:1021D00005910690079042F65810C2F2004002A9FD
:1021E00003F0DAFB18B1FFE7FFF74AFFFFE76846A5
:1021F0000023036042F65810C2F20040022211464A
:1022000003F056FC18B1FFE7FFF73AFFFFE742F68D
:102210005810C2F200401021002203F035FB18B123
:10222000FFE7FFF72DFFFFE742F65810C2F200402C
:1022300004F08AFC18B1FFE7FFF722FFFFE70AB0BE
:1022400080BD00000000000080B542F65810C2F2C8
:10225000004003F0EDFD80BD84B002900298406B19
:10226000009002980068D0F884004FF6FC71884313
:10227000009940EA810002990968C1F88400029837
:102280000068D0F8840020F47F00029A1168926BF5
:1022900040EA0240C1F884000298816B009808442B
:1022A000009002980068D0F888006FF38F000099C2
:1022B00040EA810002990968C1F888000298006824
:1022C000D0F8880020F4FE00029A1168D26B40EA30
:1022D0000240C1F888000298C16B009800EB4100F1
:1022E000009002980068D0F8A0006FF38F0000996A
:1022F00040EA810002990968C1F8A00002980068CC
:10230000D0F8A00020F4FE00029A1168126C40EA96
:102310000240C1F8A0000299086C496C009A00FBC9
:102320000120009002980068D0F8B0006FF38F0091
:10233000009940EA810002990968C1F8B00002984A
:102340000068D0F8B00020F4FE00029A1168926C88
:1023500040EA0240C1F8B0000299886CC96C009A4A
:1023600000FB0120009002980068D0F8AC006FF3E9
:102370008F00009940EA810002990968C1F8AC0019
:102380000299086D496D009A00FB012000900298A7
:102390000068D0F8F0006FF38F00009940EA8100E8
:1023A00002990968C1F8F00002980068D0F8F000BE
:1023B00020F47C10029A1168926D40EA0240C1F844
:1023C000F0000298816D009800EB410000900298A7
:1023D0000068D0F8C0006FF38F00009940EA8100D8
:1023E00002990968C1F8C00002980068D0F8C000DE
:1023F00020F47C10029A1168D26D40EA0240C1F8C4
:10240000C00002980068D0F8C00020F07C50029A0A
:102410001168126E40EA0260C1F8C00002994A6B6E
:102420004AF60040C4F2000000EB8200C866029940
:102430008A6BC86E00EB820008670299CA6B086F4E
:1024400000EBC200486702990A6C4B6C486F5A4314
:1024500000EB8200886702998A6CCB6C886F5A43C4
:1024600000EB8200C86702990A6D4B6DC86F5A4332
:1024700000EB8200C1F8800002998A6DD1F88000DB
:1024800000EBC200C1F884000299CA6D8B6ED1F8CE
:1024900084005A4300EB8200C1F8880002990A6E5A
:1024A0008B6ED1F888005A4300EB8200C1F890008F
:1024B0000298D0F890004DF2FD31C4F2000188423C
:1024C0000FD3FFE70299D1F89C0040F02000C1F83B
:1024D0009C000299032081F8980001208DF80F00DC
:1024E00017E00298C06E0190FFE701980299D1F8B9
:1024F0009010884208D2FFE7019900200860FFE7AA
:10250000019804300190F0E7FFE700208DF80F00FC
:10251000FFE79DF80F0004B07047000000000000C6
:1025200084B002900191ADF80220029828B9FFE72B
:102530004FF6FF70ADF80E0021E0FFE70198411E55
:102540000191B8B1FFE70298411C029100788DF823
:102550000100BDF802109DF801004840C2B248F2E7
:102560007640C0F6010030F8120080EA1120ADF884
:102570000200E3E7BDF80200ADF80E00FFE7BDF88A
:102580000E0004B07047000080B584B04EF6000025
:10259000C1F6F170006803904EF60400C1F6F170C8
:1025A000006802904EF60800C1F6F17000680190D4
:1025B0000199039808440390039888B1FFE70398B2
:1025C00040F6C421C2F200410091023108220AF013
:1025D000BBFF00990298123104220AF0B5FFFFE711
:1025E00004B080BD0000000080B58AB0089004F0FF
:1025F0001BFD0490089828B9FFE701208DF82700FB
:1026000000F0AABC089890F8350002280ED0FFE729
:10261000089980204865FFE70899002081F8340078
:10262000FFE701208DF8270000F096BC08980168AC
:1026300001201022C4F202029142039000F0A38014
:10264000FFE70898016801202822C4F202029142A3
:10265000039000F09880FFE708980168012040226D
:10266000C4F202029142039000F08D80FFE70898C7
:10267000016801205822C4F202029142039000F046
:102680008280FFE70898016801207022C4F20202EC
:102690009142039077D0FFE70898016801208822D3
:1026A000C4F20202914203906DD0FFE708980168DE
:1026B0000120A022C4F202029142039063D0FFE7FE
:1026C000089801680120B822C4F2020291420390E6
:1026D00059D0FFE708980168012040F21042C4F287
:1026E0000202914203904ED0FFE708980168012052
:1026F00040F22842C4F202029142039043D0FFE725
:1027000008980168012040F24042C4F2020291425E
:10271000039038D0FFE708980168012040F2584242
:10272000C4F20202914203902DD0FFE7089801689D
:10273000012040F27042C4F202029142039022D082
:10274000FFE708980168012040F28842C4F20202C3
:102750009142039017D0FFE708980168012040F2EA
:10276000A042C4F20202914203900CD0FFE7089805
:1027700000684FF64831CBF6FD710844B0FA80F09E
:1027800040090390FFE70398C00780B1FFE708986E
:102790000168086820F01E00086008980168486910
:1027A00020F08000486108980068059009E00898CA
:1027B0000168086820F00E0008600898006805901D
:1027C000FFE70898016801201022C4F2020291423A
:1027D000029000F00381FFE7089801680120282299
:1027E000C4F202029142029000F0F880FFE70898DC
:1027F000016801204022C4F202029142029000F0DE
:10280000ED80FFE70898016801205822C4F2020217
:102810009142029000F0E280FFE7089801680120F1
:102820007022C4F202029142029000F0D780FFE7CA
:102830000898016801208822C4F2020291420290A5
:1028400000F0CC80FFE7089801680120A022C4F2C4
:1028500002029142029000F0C180FFE708980168EF
:102860000120B822C4F202029142029000F0B68028
:10287000FFE708980168012040F21042C4F202020A
:102880009142029000F0AA80FFE7089801680120B9
:1028900040F22842C4F202029142029000F09E806F
:1028A000FFE708980168012040F24042C4F20202AA
:1028B0009142029000F09280FFE7089801680120A1
:1028C00040F25842C4F202029142029000F0868027
:1028D000FFE708980168012040F27042C4F202024A
:1028E000914202907AD0FFE708980168012040F2F7
:1028F0008842C4F20202914202906FD0FFE708982A
:102900000168012040F2A042C4F20202914202900A
:1029100064D0FFE708980168012040F2B842C4F291
:1029200002029142029059D0FFE708980168012005
:1029300045F20842C5F60202914202904ED0FFE7EE
:1029400008980168012045F21C42C5F60202914236
:10295000029043D0FFE708980168012045F2304219
:10296000C5F602029142029038D0FFE7089801684C
:10297000012045F24442C5F60202914202902DD058
:10298000FFE708980168012045F25842C5F60202A7
:102990009142029022D0FFE708980168012045F299
:1029A0006C42C5F602029142029017D0FFE70898E8
:1029B0000168012045F28042C5F602029142029070
:1029C0000CD0FFE7089800684AF66C31CAF2FD7136
:1029D0000844B0FA80F040090290FFE70298C0076F
:1029E00038B1FFE70898016E086820F4807008602D
:1029F000FFE7089800681021C4F20201884200F045
:102A00008180FFE7089800682821C4F2020188420B
:102A100078D0FFE7089800684021C4F2020188429C
:102A200070D0FFE7089800685821C4F2020188427C
:102A300068D0FFE7089800687021C4F2020188425C
:102A400060D0FFE7089800688821C4F2020188423C
:102A500058D0FFE708980068A021C4F2020188421C
:102A600050D0FFE708980068B821C4F202018842FC
:102A700048D0FFE70898006840F21041C4F2020114
:102A800088423FD0FFE70898006840F22841C4F22E
:102A90000201884236D0FFE70898006840F24041C2
:102AA000C4F2020188422DD0FFE70898006840F286
:102AB0005841C4F20201884224D0FFE70898006818
:102AC00040F27041C4F2020188421BD0FFE708982F
:102AD000006840F28841C4F20201884212D0FFE748
:102AE0000898006840F2A041C4F20201884209D06F
:102AF000FFE70898006840F2B841C4F2020188423A
:102B000007D1FFE708980168086820F00100086015
:102B100006E008980168086820F001000860FFE7F7
:102B2000FFE705980068C007C8B1FFE704F07CFA2A
:102B30000499401A062811D3FFE708992020486518
:102B40000899032081F83500FFE70899002081F8F3
:102B50003400FFE701208DF82700FDE1E1E7089848
:102B6000016801201022C4F202029142019000F09B
:102B7000A380FFE70898016801202822C4F202021E
:102B80009142019000F09880FFE7089801680120C9
:102B90004022C4F202029142019000F08D80FFE7D2
:102BA0000898016801205822C4F202029142019063
:102BB00000F08280FFE70898016801207022C4F2CB
:102BC00002029142019077D0FFE708980168012046
:102BD0008822C4F20202914201906DD0FFE708986A
:102BE00001680120A022C4F202029142019063D048
:102BF000FFE7089801680120B822C4F2020291425E
:102C0000019059D0FFE708980168012040F2104276
:102C1000C4F20202914201904ED0FFE70898016889
:102C2000012040F22842C4F202029142019043D0B6
:102C3000FFE708980168012040F24042C4F2020216
:102C40009142019038D0FFE708980168012040F2D6
:102C50005842C4F20202914201902DD0FFE7089839
:102C60000168012040F27042C4F2020291420190D8
:102C700022D0FFE708980168012040F28842C4F2A0
:102C800002029142019017D0FFE7089801680120E5
:102C900040F2A042C4F20202914201900CD0FFE740
:102CA000089800684FF64831CBF6FD710844B0FA39
:102CB00080F040090190FFE70198C00760B1FFE78D
:102CC0000898806D07900898C06D00F01F013F20A4
:102CD0008840079988600BE00898806D06900898F6
:102CE000C06D00F01F010120884006994860FFE791
:102CF0000898016801201022C4F20202914200905B
:102D000000F00381FFE70898016801202822C4F23F
:102D100002029142009000F0F880FFE708980168F5
:102D200001204022C4F202029142009000F0ED80A6
:102D3000FFE70898016801205822C4F2020291427C
:102D4000009000F0E280FFE70898016801207022FF
:102D5000C4F202029142009000F0D780FFE7089889
:102D6000016801208822C4F202029142009000F022
:102D7000CC80FFE7089801680120A022C4F202027B
:102D80009142009000F0C180FFE70898016801209F
:102D9000B822C4F202029142009000F0B680FFE730
:102DA00008980168012040F21042C4F202029142E8
:102DB000009000F0AA80FFE708980168012040F227
:102DC0002842C4F202029142009000F09E80FFE788
:102DD00008980168012040F24042C4F20202914288
:102DE000009000F09280FFE708980168012040F20F
:102DF0005842C4F202029142009000F08680FFE740
:102E000008980168012040F27042C4F20202914227
:102E100000907AD0FFE708980168012040F28842CC
:102E2000C4F20202914200906FD0FFE70898016857
:102E3000012040F2A042C4F202029142009064D00C
:102E4000FFE708980168012040F2B842C4F202028C
:102E50009142009059D0FFE708980168012045F29F
:102E60000842C5F60202914200904ED0FFE7089852
:102E70000168012045F21C42C5F602029142009011
:102E800043D0FFE708980168012045F23042C5F6BB
:102E900002029142009038D0FFE7089801680120B3
:102EA00045F24442C5F60202914200902DD0FFE760
:102EB00008980168012045F25842C5F60202914285
:102EC000009022D0FFE708980168012045F26C428B
:102ED000C5F602029142009017D0FFE708980168FA
:102EE000012045F28042C5F60202914200900CD0CA
:102EF000FFE7089800684AF66C31CAF2FD71084491
:102F0000B0FA80F040090090FFE70098C007A0B138
:102F1000FFE70898416E806E48600898C06E58B10F
:102F2000FFE70898C16E086820F480700860089870
:102F3000016F406F4860FFE7FFE70899012081F8C3
:102F40003500FFE70899002081F83400FFE7FFE72C
:102F500000208DF82700FFE79DF827000AB080BD0C
:102F600080B586B00490049820B9FFE701208DF861
:102F7000170046E3049890F83500022807D0FFE7D1
:102F800004998020486501208DF8170039E30498E2
:102F9000016801201022C4F202029142029000F066
:102FA000A380FFE70498016801202822C4F20202EE
:102FB0009142029000F09880FFE704980168012098
:102FC0004022C4F202029142029000F08D80FFE79D
:102FD0000498016801205822C4F202029142029032
:102FE00000F08280FFE70498016801207022C4F29B
:102FF00002029142029077D0FFE704980168012015
:103000008822C4F20202914202906DD0FFE7049838
:1030100001680120A022C4F202029142029063D012
:10302000FFE7049801680120B822C4F2020291422D
:10303000029059D0FFE704980168012040F2104245
:10304000C4F20202914202904ED0FFE70498016858
:10305000012040F22842C4F202029142029043D081
:10306000FFE704980168012040F24042C4F20202E6
:103070009142029038D0FFE704980168012040F2A5
:103080005842C4F20202914202902DD0FFE7049808
:103090000168012040F27042C4F2020291420290A3
:1030A00022D0FFE704980168012040F28842C4F270
:1030B00002029142029017D0FFE7049801680120B4
:1030C00040F2A042C4F20202914202900CD0FFE70B
:1030D000049800684FF64831CBF6FD710844B0FA09
:1030E00080F040090290FFE70298C007002800F036
:1030F0009D80FFE70499042081F83500049800685A
:103100001021C4F20201884200F08180FFE7049898
:1031100000682821C4F20201884278D0FFE70498B1
:1031200000684021C4F20201884270D0FFE7049891
:1031300000685821C4F20201884268D0FFE7049871
:1031400000687021C4F20201884260D0FFE7049851
:1031500000688821C4F20201884258D0FFE7049831
:103160000068A021C4F20201884250D0FFE7049811
:103170000068B821C4F20201884248D0FFE70498F1
:10318000006840F21041C4F2020188423FD0FFE7DC
:103190000498006840F22841C4F20201884236D007
:1031A000FFE70498006840F24041C4F202018842FF
:1031B0002DD0FFE70498006840F25841C4F20201A4
:1031C000884224D0FFE70498006840F27041C4F2BE
:1031D000020188421BD0FFE70498006840F2884152
:1031E000C4F20201884212D0FFE70498006840F25E
:1031F000A041C4F20201884209D0FFE704980068A8
:1032000040F2B841C4F20201884207D1FFE70498B6
:103210000168086820F00100086006E00498016871
:10322000086820F001000860FFE7E5E10498016804
:10323000086820F00E000860049800681021C4F2AD
:103240000201884200F08180FFE70498006828218D
:10325000C4F20201884278D0FFE704980068402158
:10326000C4F20201884270D0FFE704980068582138
:10327000C4F20201884268D0FFE704980068702118
:10328000C4F20201884260D0FFE7049800688821F8
:10329000C4F20201884258D0FFE704980068A021D8
:1032A000C4F20201884250D0FFE704980068B821B8
:1032B000C4F20201884248D0FFE70498006840F257
:1032C0001041C4F2020188423FD0FFE70498006831
:1032D00040F22841C4F20201884236D0FFE7049848
:1032E000006840F24041C4F2020188422DD0FFE75D
:1032F0000498006840F25841C4F20201884224D088
:10330000FFE70498006840F27041C4F2020188426D
:103310001BD0FFE70498006840F28841C4F2020124
:10332000884212D0FFE70498006840F2A041C4F23E
:103330000201884209D0FFE70498006840F2B841D2
:10334000C4F20201884207D1FFE7049801680868C7
:1033500020F00100086006E004980168086820F089
:1033600001000860FFE70498016801201022C4F200
:1033700002029142019000F00381FFE70498016886
:1033800001202822C4F202029142019000F0F8804C
:10339000FFE70498016801204022C4F20202914232
:1033A000019000F0ED80FFE70498016801205822A9
:1033B000C4F202029142019000F0E280FFE704981B
:1033C000016801207022C4F202029142019000F0D3
:1033D000D780FFE70498016801208822C4F2020226
:1033E0009142019000F0CC80FFE704980168012031
:1033F000A022C4F202029142019000F0C180FFE7D6
:10340000049801680120B822C4F20202914201909E
:1034100000F0B680FFE704980168012040F21042F6
:10342000C4F202029142019000F0AA80FFE70498E2
:103430000168012040F22842C4F202029142019048
:1034400000F09E80FFE704980168012040F24042AE
:10345000C4F202029142019000F09280FFE70498CA
:103460000168012040F25842C4F2020291420190E8
:1034700000F08680FFE704980168012040F2704266
:10348000C4F20202914201907AD0FFE704980168E9
:10349000012040F28842C4F20202914201906FD0B2
:1034A000FFE704980168012040F2A042C4F2020242
:1034B0009142019064D0FFE704980168012040F236
:1034C000B842C4F202029142019059D0FFE7049839
:1034D0000168012045F20842C5F6020291420190BE
:1034E0004ED0FFE704980168012045F21C42C5F662
:1034F00002029142019043D0FFE704980168012045
:1035000045F23042C5F602029142019038D0FFE701
:1035100004980168012045F24442C5F60202914236
:1035200001902DD0FFE704980168012045F2584230
:10353000C5F602029142019022D0FFE7049801688B
:10354000012045F26C42C5F602029142019017D06B
:10355000FFE704980168012045F28042C5F60202A7
:10356000914201900CD0FFE7049800684AF66C3154
:10357000CAF2FD710844B0FA80F040090190FFE7FB
:103580000198C00728B3FFE70498016E086820F48B
:10359000807008600498806D03900498C06D00F0FE
:1035A0001F0101208840039948600498416E806E95
:1035B00048600498C06E58B1FFE70498C16E08686F
:1035C00020F4807008600498016F406F4860FFE746
:1035D000FFE70499012081F83500FFE704990020F6
:1035E00081F83400FFE70498006D20B1FFE70498EC
:1035F000016D8847FFE7FFE7FFE700208DF8170020
:10360000FFE79DF8170006B080BD00000000000035
:1036100080B590B00F9000200B9040F60820C2F2C9
:103620000040006848F2B511C1F64E31A0FB011010
:10363000800A0A900F98806D09900F98806D08900D
:10364000099800680E90089800680D900F9801681E
:1036500001201022C4F202029142079000F0A380E0
:10366000FFE70F98016801202822C4F2020291426C
:10367000079000F09880FFE70F9801680120402232
:10368000C4F202029142079000F08D80FFE70F988C
:10369000016801205822C4F202029142079000F012
:1036A0008280FFE70F98016801207022C4F20202B5
:1036B0009142079077D0FFE70F9801680120882298
:1036C000C4F20202914207906DD0FFE70F980168A3
:1036D0000120A022C4F202029142079063D0FFE7CA
:1036E0000F9801680120B822C4F2020291420790AB
:1036F00059D0FFE70F980168012040F21042C4F250
:103700000202914207904ED0FFE70F980168012016
:1037100040F22842C4F202029142079043D0FFE7F0
:103720000F980168012040F24042C4F20202914227
:10373000079038D0FFE70F980168012040F2584207
:10374000C4F20202914207902DD0FFE70F98016862
:10375000012040F27042C4F202029142079022D04E
:10376000FFE70F980168012040F28842C4F202028C
:103770009142079017D0FFE70F980168012040F2AF
:10378000A042C4F20202914207900CD0FFE70F98CA
:1037900000684FF64831CBF6FD710844B0FA80F06E
:1037A00040090790FFE70798C007002800F013853D
:1037B000FFE70E980F99C96D01F01F01C84000077F
:1037C000002840F1B080FFE70F9800681021C4F294
:1037D0000201884200F08180FFE70F9800682821ED
:1037E000C4F20201884278D0FFE70F9800684021B8
:1037F000C4F20201884270D0FFE70F980068582198
:10380000C4F20201884268D0FFE70F980068702177
:10381000C4F20201884260D0FFE70F980068882157
:10382000C4F20201884258D0FFE70F980068A02137
:10383000C4F20201884250D0FFE70F980068B82117
:10384000C4F20201884248D0FFE70F98006840F2B6
:103850001041C4F2020188423FD0FFE70F98006890
:1038600040F22841C4F20201884236D0FFE70F98A7
:10387000006840F24041C4F2020188422DD0FFE7C7
:103880000F98006840F25841C4F20201884224D0E7
:10389000FFE70F98006840F27041C4F202018842CD
:1038A0001BD0FFE70F98006840F28841C4F2020184
:1038B000884212D0FFE70F98006840F2A041C4F29E
:1038C0000201884209D0FFE70F98006840F2B84132
:1038D000C4F20201884207D1FFE70F980068006830
:1038E00000F00400069006E00F980068006800F001
:1038F00008000690FFE70698A0B1FFE70F9801685F
:10390000086820F0040008600F98C06D00F01F01E7
:1039100008208840099988600F99486D40F001009F
:103920004865FFE7FFE70E980F99C96D01F01F0189
:10393000C840C007002800F0A980FFE70F98006882
:103940001021C4F20201884200F08180FFE70F9845
:1039500000682821C4F20201884278D0FFE70F985E
:1039600000684021C4F20201884270D0FFE70F983E
:1039700000685821C4F20201884268D0FFE70F981E
:1039800000687021C4F20201884260D0FFE70F98FE
:1039900000688821C4F20201884258D0FFE70F98DE
:1039A0000068A021C4F20201884250D0FFE70F98BE
:1039B0000068B821C4F20201884248D0FFE70F989E
:1039C000006840F21041C4F2020188423FD0FFE794
:1039D0000F98006840F22841C4F20201884236D0B4
:1039E000FFE70F98006840F24041C4F202018842AC
:1039F0002DD0FFE70F98006840F25841C4F2020151
:103A0000884224D0FFE70F98006840F27041C4F26A
:103A1000020188421BD0FFE70F98006840F28841FE
:103A2000C4F20201884212D0FFE70F98006840F20A
:103A3000A041C4F20201884209D0FFE70F98006854
:103A400040F2B841C4F20201884207D1FFE70F9863
:103A50000068406900F08000059005E00F9800685C
:103A6000006800200590FFE7059870B1FFE70F9808
:103A7000C06D00F01F0101208840099988600F99EE
:103A8000486D40F002004865FFE7FFE70E980F9988
:103A9000C96D01F01F01C8404007002840F1A9800E
:103AA000FFE70F9800681021C4F20201884200F07D
:103AB0008180FFE70F9800682821C4F20201884244
:103AC00078D0FFE70F9800684021C4F202018842D5
:103AD00070D0FFE70F9800685821C4F202018842B5
:103AE00068D0FFE70F9800687021C4F20201884295
:103AF00060D0FFE70F9800688821C4F20201884275
:103B000058D0FFE70F980068A021C4F20201884254
:103B100050D0FFE70F980068B821C4F20201884234
:103B200048D0FFE70F98006840F21041C4F202014C
:103B300088423FD0FFE70F98006840F22841C4F266
:103B40000201884236D0FFE70F98006840F24041FA
:103B5000C4F2020188422DD0FFE70F98006840F2BE
:103B60005841C4F20201884224D0FFE70F98006850
:103B700040F27041C4F2020188421BD0FFE70F9867
:103B8000006840F28841C4F20201884212D0FFE787
:103B90000F98006840F2A041C4F20201884209D0A7
:103BA000FFE70F98006840F2B841C4F20201884272
:103BB00007D1FFE70F980068006800F0020004904A
:103BC00005E00F980068006800200490FFE7049863
:103BD00070B1FFE70F98C06D00F01F01042088400E
:103BE000099988600F99486D40F004004865FFE727
:103BF000FFE70E980F99C96D01F01F01C840C0067C
:103C0000002840F1DE80FFE70F9800681021C4F221
:103C10000201884200F08180FFE70F9800682821A8
:103C2000C4F20201884278D0FFE70F980068402173
:103C3000C4F20201884270D0FFE70F980068582153
:103C4000C4F20201884268D0FFE70F980068702133
:103C5000C4F20201884260D0FFE70F980068882113
:103C6000C4F20201884258D0FFE70F980068A021F3
:103C7000C4F20201884250D0FFE70F980068B821D3
:103C8000C4F20201884248D0FFE70F98006840F272
:103C90001041C4F2020188423FD0FFE70F9800684C
:103CA00040F22841C4F20201884236D0FFE70F9863
:103CB000006840F24041C4F2020188422DD0FFE783
:103CC0000F98006840F25841C4F20201884224D0A3
:103CD000FFE70F98006840F27041C4F20201884289
:103CE0001BD0FFE70F98006840F28841C4F2020140
:103CF000884212D0FFE70F98006840F2A041C4F25A
:103D00000201884209D0FFE70F98006840F2B841ED
:103D1000C4F20201884207D1FFE70F9800680068EB
:103D200000F00800039006E00F980068006800F0BB
:103D300004000390FFE70398002841D0FFE70F98A5
:103D4000C06D00F01F0110208840099988600F980D
:103D500000680068400300281AD5FFE70F98006844
:103D600000680003002809D4FFE70F98006C20B119
:103D7000FFE70F98016C8847FFE708E00F98806C19
:103D800020B1FFE70F98816C8847FFE7FFE716E057
:103D90000F9800680068C005002807D4FFE70F9857
:103DA0000168086820F008000860FFE70F98006CC1
:103DB00020B1FFE70F98016C8847FFE7FFE7FFE7B7
:103DC000FFE70E980F99C96D01F01F01C8408006EA
:103DD000002840F12681FFE70F9800681021C4F207
:103DE0000201884200F08180FFE70F9800682821D7
:103DF000C4F20201884278D0FFE70F9800684021A2
:103E0000C4F20201884270D0FFE70F980068582181
:103E1000C4F20201884268D0FFE70F980068702161
:103E2000C4F20201884260D0FFE70F980068882141
:103E3000C4F20201884258D0FFE70F980068A02121
:103E4000C4F20201884250D0FFE70F980068B82101
:103E5000C4F20201884248D0FFE70F98006840F2A0
:103E60001041C4F2020188423FD0FFE70F9800687A
:103E700040F22841C4F20201884236D0FFE70F9891
:103E8000006840F24041C4F2020188422DD0FFE7B1
:103E90000F98006840F25841C4F20201884224D0D1
:103EA000FFE70F98006840F27041C4F202018842B7
:103EB0001BD0FFE70F98006840F28841C4F202016E
:103EC000884212D0FFE70F98006840F2A041C4F288
:103ED0000201884209D0FFE70F98006840F2B8411C
:103EE000C4F20201884207D1FFE70F98006800681A
:103EF00000F01000029006E00F980068006800F0E3
:103F000002000290FFE70298002800F08980FFE796
:103F10000F98C06D00F01F0120208840099988602B
:103F20000F9890F83500042837D1FFE70F98016803
:103F3000086820F0160008600F980168486920F0B2
:103F4000800048610F98006C20B9FFE70F98806CE3
:103F500038B1FFE70F980168086820F00800086092
:103F6000FFE70F98C06D00F01F013F2088400999BE
:103F700088600F99012081F83500FFE70F99002034
:103F800081F83400FFE70F98006D20B1FFE70F982C
:103F9000016D8847FFE700F019BC0F9800680068C2
:103FA000400300281AD5FFE70F9800680068000357
:103FB000002809D4FFE70F98406C20B1FFE70F9865
:103FC000416C8847FFE708E00F98C06B20B1FFE71E
:103FD0000F98C16B8847FFE7FFE720E00F98006864
:103FE0000068C005002811D4FFE70F980168086831
:103FF00020F0100008600F99012081F83500FFE7DC
:104000000F99002081F83400FFE7FFE70F98C06B9D
:1040100020B1FFE70F98C16B8847FFE7FFE7FFE795
:10402000FFE70F98406D002800F0D480FFE70F985D
:10403000406DC007002800F0C480FFE70F990420FE
:1040400081F835000F9800681021C4F202018842FF
:1040500000F08180FFE70F9800682821C4F2020178
:10406000884278D0FFE70F9800684021C4F202012F
:10407000884270D0FFE70F9800685821C4F202010F
:10408000884268D0FFE70F9800687021C4F20201EF
:10409000884260D0FFE70F9800688821C4F20201CF
:1040A000884258D0FFE70F980068A021C4F20201AF
:1040B000884250D0FFE70F980068B821C4F202018F
:1040C000884248D0FFE70F98006840F21041C4F2E0
:1040D000020188423FD0FFE70F98006840F2284174
:1040E000C4F20201884236D0FFE70F98006840F220
:1040F0004041C4F2020188422DD0FFE70F980068CA
:1041000040F25841C4F20201884224D0FFE70F98E0
:10411000006840F27041C4F2020188421BD0FFE700
:104120000F98006840F28841C4F20201884212D020
:10413000FFE70F98006840F2A041C4F202018842F4
:1041400009D0FFE70F98006840F2B841C4F20201BD
:10415000884207D1FFE70F980168086820F0010046
:10416000086006E00F980168086820F00100086008
:10417000FFE7FFE70B9801300B900A99884201D9BD
:10418000FFE707E0FFE70F9800680068C007002816
:10419000F0D1FFE70F9800680068C00728B1FFE77B
:1041A0000F99032081F8350004E00F99012081F870
:1041B0003500FFE7FFE70F99002081F83400FFE7A3
:1041C000FFE70F98C06C20B1FFE70F98C16C8847DC
:1041D000FFE7FFE7FAE20F980168012045F2084285
:1041E000C5F60202914201904ED0FFE70F98016898
:1041F000012045F21C42C5F602029142019043D0D3
:10420000FFE70F980168012045F23042C5F602022F
:104210009142019038D0FFE70F980168012045F2E4
:104220004442C5F60202914201902DD0FFE70F985B
:104230000168012045F25842C5F602029142019000
:1042400022D0FFE70F980168012045F26C42C5F6C5
:1042500002029142019017D0FFE70F9801680120F8
:1042600045F28042C5F60202914201900CD0FFE770
:104270000F9800684AF66C31CAF2FD710844B0FA32
:1042800080F040090190FFE70198C007002800F086
:104290009B82FFE70F98006800680C900D980F99BB
:1042A000C96D01F01F01C8404007002840F1D780C8
:1042B000FFE79DF830004007002840F1D080FFE77D
:1042C0000F98C06D00F01F010420884008994860D5
:1042D0009DF831000006002818D5FFE79DF8320050
:1042E000C00748B9FFE70F98806C20B1FFE70F982F
:1042F000816C8847FFE708E00F98006C20B1FFE76A
:104300000F98016C8847FFE7FFE7A7E09DF83000B2
:104310008006002800F19980FFE70F9800681021BF
:10432000C4F20201884200F08180FFE70F98006824
:104330002821C4F20201884278D0FFE70F98006874
:104340004021C4F20201884270D0FFE70F98006854
:104350005821C4F20201884268D0FFE70F98006834
:104360007021C4F20201884260D0FFE70F98006814
:104370008821C4F20201884258D0FFE70F980068F4
:10438000A021C4F20201884250D0FFE70F980068D4
:10439000B821C4F20201884248D0FFE70F980068B4
:1043A00040F21041C4F2020188423FD0FFE70F986B
:1043B000006840F22841C4F20201884236D0FFE78B
:1043C0000F98006840F24041C4F2020188422DD0AB
:1043D000FFE70F98006840F25841C4F2020188429A
:1043E00024D0FFE70F98006840F27041C4F2020148
:1043F00088421BD0FFE70F98006840F28841C4F262
:104400000201884212D0FFE70F98006840F2A041F5
:10441000C4F20201884209D0FFE70F98006840F219
:10442000B841C4F20201884207D1FFE70F98016842
:10443000086820F00800086006E00F980168086826
:1044400020F004000860FFE7FFE70F98006C20B140
:10445000FFE70F98016C8847FFE7FFE7B3E10D988E
:104460000F99C96D01F01F01C8408007002840F175
:10447000E180FFE79DF830008007002840F1DA80F6
:10448000FFE70F98C06D00F01F01022088400899D7
:1044900048609DF831000006002818D5FFE79DF818
:1044A0003200C00748B9FFE70F98406C20B1FFE722
:1044B0000F98416C8847FFE708E00F98C06B20B168
:1044C000FFE70F98C16B8847FFE7FFE7B1E09DF872
:1044D00030008006002800F1A380FFE70F980068F5
:1044E0001021C4F20201884200F08180FFE70F989A
:1044F00000682821C4F20201884278D0FFE70F98B3
:1045000000684021C4F20201884270D0FFE70F9892
:1045100000685821C4F20201884268D0FFE70F9872
:1045200000687021C4F20201884260D0FFE70F9852
:1045300000688821C4F20201884258D0FFE70F9832
:104540000068A021C4F20201884250D0FFE70F9812
:104550000068B821C4F20201884248D0FFE70F98F2
:10456000006840F21041C4F2020188423FD0FFE7E8
:104570000F98006840F22841C4F20201884236D008
:10458000FFE70F98006840F24041C4F20201884200
:104590002DD0FFE70F98006840F25841C4F20201A5
:1045A000884224D0FFE70F98006840F27041C4F2BF
:1045B000020188421BD0FFE70F98006840F2884153
:1045C000C4F20201884212D0FFE70F98006840F25F
:1045D000A041C4F20201884209D0FFE70F980068A9
:1045E00040F2B841C4F20201884207D1FFE70F98B8
:1045F0000168086820F01400086006E00F98016860
:10460000086820F00A000860FFE70F99012081F890
:104610003500FFE70F99002081F83400FFE7FFE73E
:104620000F98C06B20B1FFE70F98C16B8847FFE779
:10463000FFE7C7E00D980F99C96D01F01F01C84051
:104640000007002840F1BC80FFE79DF8300000071C
:10465000002840F1B580FFE70F9800681021C4F2F0
:104660000201884200F08180FFE70F98006828214E
:10467000C4F20201884278D0FFE70F980068402119
:10468000C4F20201884270D0FFE70F9800685821F9
:10469000C4F20201884268D0FFE70F9800687021D9
:1046A000C4F20201884260D0FFE70F9800688821B9
:1046B000C4F20201884258D0FFE70F980068A02199
:1046C000C4F20201884250D0FFE70F980068B82179
:1046D000C4F20201884248D0FFE70F98006840F218
:1046E0001041C4F2020188423FD0FFE70F980068F2
:1046F00040F22841C4F20201884236D0FFE70F9809
:10470000006840F24041C4F2020188422DD0FFE728
:104710000F98006840F25841C4F20201884224D048
:10472000FFE70F98006840F27041C4F2020188422E
:104730001BD0FFE70F98006840F28841C4F20201E5
:10474000884212D0FFE70F98006840F2A041C4F2FF
:104750000201884209D0FFE70F98006840F2B84193
:10476000C4F20201884207D1FFE70F980168086888
:1047700020F01C00086006E00F980168086820F02F
:104780000E000860FFE70F98C06D00F01F010120C8
:1047900000FA01F1089A51600F9948650F9981F864
:1047A0003500FFE70F99002081F83400FFE70F98EC
:1047B000C06C20B1FFE70F98C16C8847FFE700E0AD
:1047C000FFE7FFE7FFE700E0FFE7FFE710B080BD8E
:1047D00080B58EB00C9002F027FC0A900C9828B996
:1047E000FFE701208DF8370000F09FBC0C980168AE
:1047F00001201022C4F202029142079000F0A3802F
:10480000FFE70C98016801202822C4F202029142BD
:10481000079000F09880FFE70C9801680120402283
:10482000C4F202029142079000F08D80FFE70C98DD
:10483000016801205822C4F202029142079000F060
:104840008280FFE70C98016801207022C4F2020206
:104850009142079077D0FFE70C98016801208822E9
:10486000C4F20202914207906DD0FFE70C980168F4
:104870000120A022C4F202029142079063D0FFE718
:104880000C9801680120B822C4F2020291420790FC
:1048900059D0FFE70C980168012040F21042C4F2A1
:1048A0000202914207904ED0FFE70C980168012068
:1048B00040F22842C4F202029142079043D0FFE73F
:1048C0000C980168012040F24042C4F20202914279
:1048D000079038D0FFE70C980168012040F2584259
:1048E000C4F20202914207902DD0FFE70C980168B4
:1048F000012040F27042C4F202029142079022D09D
:10490000FFE70C980168012040F28842C4F20202DD
:104910009142079017D0FFE70C980168012040F200
:10492000A042C4F20202914207900CD0FFE70C981B
:1049300000684FF64831CBF6FD710844B0FA80F0BC
:1049400040090790FFE70798C007002800F078812A
:10495000FFE70C98406A08B1FFE7FFE70C990220D7
:1049600081F83500FFE70C99002081F83400FFE75B
:104970000C9800681021C4F20201884200F0818086
:10498000FFE70C9800682821C4F20201884278D021
:10499000FFE70C9800684021C4F20201884270D001
:1049A000FFE70C9800685821C4F20201884268D0E1
:1049B000FFE70C9800687021C4F20201884260D0C1
:1049C000FFE70C9800688821C4F20201884258D0A1
:1049D000FFE70C980068A021C4F20201884250D081
:1049E000FFE70C980068B821C4F20201884248D061
:1049F000FFE70C98006840F21041C4F202018842BF
:104A00003FD0FFE70C98006840F22841C4F2020151
:104A1000884236D0FFE70C98006840F24041C4F26B
:104A2000020188422DD0FFE70C98006840F25841FF
:104A3000C4F20201884224D0FFE70C98006840F2DB
:104A40007041C4F2020188421BD0FFE70C98006855
:104A500040F28841C4F20201884212D0FFE70C986C
:104A6000006840F2A041C4F20201884209D0FFE789
:104A70000C98006840F2B841C4F20201884207D1A4
:104A8000FFE70C980168086820F00100086006E064
:104A90000C980168086820F001000860FFE7FFE754
:104AA0000C9800680068C00798B1FFE702F0BCFAF4
:104AB0000A99401A06280BD3FFE70C992020486575
:104AC0000C99032081F8350001208DF837002CE384
:104AD000E6E70C98006800680B900B9848F23F01DD
:104AE000CFF6106108400B900C998868D1F80CC083
:104AF0000B694A6940EA0C00184310438A69104365
:104B0000CA691043096A01430B9808430B900C983B
:104B1000406A042808D1FFE70C99C86A096B014371
:104B20000B9808430B90FFE70C984068292807D39F
:104B3000FFE70C98416801202F29069036D3FFE744
:104B40000C9840683F2807D3FFE70C984168012084
:104B5000432906902AD3FFE70C984068472807D3DB
:104B6000FFE70C9841680120492906901ED3FFE712
:104B70000C9840684F2807D3FFE70C984168012044
:104B80005329069012D3FFE70C984168002074293E
:104B9000059008D3FFE70C9841680020782938BFBA
:104BA00001200590FFE705980690FFE70698C007EB
:104BB00028B1FFE70B9840F480100B90FFE70B98AB
:104BC0000C99096808600C98006840690B900B9874
:104BD00020F007000B900C98416A0B9808430B904B
:104BE0000C98406A04281AD1FFE70C98816A0B9848
:104BF00008430B900C98C06A80B1FFE70C98FCF753
:104C000087FD50B1FFE70C99402048650C990120C1
:104C100081F835008DF8370087E2FFE7FFE70B9852
:104C20000C99096848610C98FCF736FB09900C98C0
:104C3000C06D00F01F013F2088400999886027E17E
:104C40000C980168012045F20842C5F60202914223
:104C500004904ED0FFE70C980168012045F21C42F9
:104C6000C5F602029142049043D0FFE70C98016818
:104C7000012045F23042C5F602029142049038D03C
:104C8000FFE70C980168012045F24442C5F6020294
:104C9000914204902DD0FFE70C980168012045F265
:104CA0005842C5F602029142049022D0FFE70C98C8
:104CB0000168012045F26C42C5F60202914204905F
:104CC00017D0FFE70C980168012045F28042C5F635
:104CD0000202914204900CD0FFE70C9800684AF65B
:104CE0006C31CAF2FD710844B0FA80F040090490BA
:104CF000FFE70498C007002800F0BE80FFE70C988B
:104D00000168012045F20842C5F602029142039073
:104D10004ED0FFE70C980168012045F21C42C5F611
:104D200002029142039043D0FFE70C9801680120F2
:104D300045F23042C5F602029142039038D0FFE7B7
:104D40000C980168012045F24442C5F602029142E6
:104D500003902DD0FFE70C980168012045F25842DE
:104D6000C5F602029142039022D0FFE70C98016839
:104D7000012045F26C42C5F602029142039017D021
:104D8000FFE70C980168012045F28042C5F6020257
:104D9000914203900CD0FFE70C9800684AF66C3102
:104DA000CAF2FD710844B0FA80F040090390FFE7B1
:104DB0000398C00708B1FFE7FFE70C99022081F8CC
:104DC0003500FFE70C99002081F83400FFE70C98CC
:104DD000006800680B900B986FF310100B900C9804
:104DE0008068402803D1FFE71020029008E00C986B
:104DF00080688038B0FA80F0400980030290FFE7B5
:104E000002980C99D1F80CE0D1F810C04B698A696E
:104E100040EADE0040EADC0040EAD30040EAD2008B
:104E2000CA6940EAD200096A40EA11110B980843A6
:104E30000B900B980C99096808600C9908684AF661
:104E4000F832CAF2FD7210444CF6CD42CCF6CC4298
:104E5000A0FB02026FF0030000EA9200C8650C9804
:104E6000FCF71AFA08900C98C06D00F01F010120A1
:104E70008840089948600AE00C99402048650C99E0
:104E8000032081F8350001208DF837004DE1FFE760
:104E90000C98016801201022C4F202029142019094
:104EA00000F00381FFE70C98016801202822C4F27A
:104EB00002029142019000F0F880FFE70C9801682F
:104EC00001204022C4F202029142019000F0ED80E4
:104ED000FFE70C98016801205822C4F202029142B7
:104EE000019000F0E280FFE70C9801680120702239
:104EF000C4F202029142019000F0D780FFE70C98C3
:104F0000016801208822C4F202029142019000F05F
:104F1000CC80FFE70C9801680120A022C4F20202B5
:104F20009142019000F0C180FFE70C9801680120D8
:104F3000B822C4F202029142019000F0B680FFE76D
:104F40000C980168012040F21042C4F20202914222
:104F5000019000F0AA80FFE70C980168012040F260
:104F60002842C4F202029142019000F09E80FFE7C5
:104F70000C980168012040F24042C4F202029142C2
:104F8000019000F09280FFE70C980168012040F248
:104F90005842C4F202029142019000F08680FFE77D
:104FA0000C980168012040F27042C4F20202914262
:104FB00001907AD0FFE70C980168012040F2884206
:104FC000C4F20202914201906FD0FFE70C98016891
:104FD000012040F2A042C4F202029142019064D04A
:104FE000FFE70C980168012040F2B842C4F20202C7
:104FF0009142019059D0FFE70C980168012045F2D9
:105000000842C5F60202914201904ED0FFE70C988B
:105010000168012045F21C42C5F60202914201904E
:1050200043D0FFE70C980168012045F23042C5F6F5
:1050300002029142019038D0FFE70C9801680120EC
:1050400045F24442C5F60202914201902DD0FFE79D
:105050000C980168012045F25842C5F602029142BF
:10506000019022D0FFE70C980168012045F26C42C4
:10507000C5F602029142019017D0FFE70C98016833
:10508000012045F28042C5F60202914201900CD007
:10509000FFE70C9800684AF66C31CAF2FD710844CB
:1050A000B0FA80F040090190FFE70198C00790B383
:1050B000FFE70C98FCF7D8F90C988068802804D199
:1050C000FFE70C9900204860FFE70C990879096E0A
:1050D00008600C98416E806E48600C98406888B1FA
:1050E000FFE70C98406808280CD8FFE70C98FCF7FD
:1050F00077FA0C98C16E002008600C98016F406F21
:10510000486007E00C990020C8660C9908670C9964
:105110004867FFE7FFE70C99002048650C9A0121DA
:1051200082F835108DF83700FFE79DF837000EB094
:1051300080BD00000000000080B588B00690059199
:105140000492039300208DF80B00069820B9FFE726
:1051500001208DF81F006CE3FFE7069890F83400FB
:10516000012804D1FFE702208DF81F0061E30699B2
:10517000012081F83400FFE7FFE7069890F835003A
:10518000012840F04383FFE70699022081F83500AB
:10519000069900204865069800681021C4F20201B3
:1051A000884200F08180FFE7069800682821C4F259
:1051B0000201884278D0FFE7069800684021C4F2D7
:1051C0000201884270D0FFE7069800685821C4F2B7
:1051D0000201884268D0FFE7069800687021C4F297
:1051E0000201884260D0FFE7069800688821C4F277
:1051F0000201884258D0FFE706980068A021C4F257
:105200000201884250D0FFE706980068B821C4F236
:105210000201884248D0FFE70698006840F210413A
:10522000C4F2020188423FD0FFE70698006840F2CE
:105230002841C4F20201884236D0FFE70698006890
:1052400040F24041C4F2020188422DD0FFE70698A7
:10525000006840F25841C4F20201884224D0FFE7BE
:105260000698006840F27041C4F2020188421BD0E7
:10527000FFE70698006840F28841C4F202018842C4
:1052800012D0FFE70698006840F2A041C4F2020184
:10529000884209D0FFE70698006840F2B841C4F29E
:1052A0000201884207D1FFE706980168086820F0EC
:1052B0000100086006E006980168086820F0010017
:1052C0000860FFE706980599049A039BFCF798FA93
:1052D0000698016801201022C4F202029142019056
:1052E00000F0A380FFE70698016801202822C4F29D
:1052F00002029142019000F09880FFE70698016851
:1053000001204022C4F202029142019000F08D80FF
:10531000FFE70698016801205822C4F20202914278
:10532000019000F08280FFE706980168012070225A
:10533000C4F202029142019077D0FFE7069801681B
:1053400001208822C4F20202914201906DD0FFE751
:10535000069801680120A022C4F202029142019045
:1053600063D0FFE7069801680120B822C4F2020268
:105370009142019059D0FFE706980168012040F260
:105380001042C4F20202914201904ED0FFE706980B
:105390000168012040F22842C4F2020291420190C9
:1053A00043D0FFE706980168012040F24042C4F272
:1053B00002029142019038D0FFE70698016801206F
:1053C00040F25842C4F20202914201902DD0FFE710
:1053D00006980168012040F27042C4F20202914234
:1053E000019022D0FFE706980168012040F2884230
:1053F000C4F202029142019017D0FFE706980168BB
:10540000012040F2A042C4F20202914201900CD06D
:10541000FFE7069800684FF64831CBF6FD71084467
:10542000B0FA80F040090190FFE70198C007A8B1E9
:10543000FFE70698006800680B2161F344000699B5
:10544000096808600698006C38B1FFE706980168A3
:10545000086840F008000860FFE714E0069800685C
:105460000068052161F34300069909680860069801
:10547000006C38B1FFE706980168086840F0040046
:105480000860FFE7FFE70698016801201022C4F2D8
:1054900002029142009000F00381FFE70698016844
:1054A00001202822C4F202029142009000F0F8800C
:1054B000FFE70698016801204022C4F202029142EF
:1054C000009000F0ED80FFE7069801680120582267
:1054D000C4F202029142009000F0E280FFE70698D9
:1054E000016801207022C4F202029142009000F093
:1054F000D780FFE70698016801208822C4F20202E3
:105500009142009000F0CC80FFE7069801680120EE
:10551000A022C4F202029142009000F0C180FFE795
:10552000069801680120B822C4F20202914200905C
:1055300000F0B680FFE706980168012040F21042B3
:10554000C4F202029142009000F0AA80FFE70698A0
:105550000168012040F22842C4F202029142009008
:1055600000F09E80FFE706980168012040F240426B
:10557000C4F202029142009000F09280FFE7069888
:105580000168012040F25842C4F2020291420090A8
:1055900000F08680FFE706980168012040F2704223
:1055A000C4F20202914200907AD0FFE706980168A7
:1055B000012040F28842C4F20202914200906FD072
:1055C000FFE706980168012040F2A042C4F20202FF
:1055D0009142009064D0FFE706980168012040F2F4
:1055E000B842C4F202029142009059D0FFE70698F7
:1055F0000168012045F20842C5F60202914200907E
:105600004ED0FFE706980168012045F21C42C5F61E
:1056100002029142009043D0FFE706980168012002
:1056200045F23042C5F602029142009038D0FFE7C1
:1056300006980168012045F24442C5F602029142F3
:1056400000902DD0FFE706980168012045F25842EE
:10565000C5F602029142009022D0FFE70698016849
:10566000012045F26C42C5F602029142009017D02B
:10567000FFE706980168012045F28042C5F6020264
:10568000914200900CD0FFE7069800684AF66C3112
:10569000CAF2FD710844B0FA80F040090090FFE7BB
:1056A0000098C007D0B1FFE70698006E0068C003FD
:1056B000002807D5FFE70698016E086840F480705F
:1056C0000860FFE70698C06E38B1FFE70698C16E24
:1056D000086840F480700860FFE7FFE706980068FC
:1056E0001021C4F20201884200F08180FFE7069891
:1056F00000682821C4F20201884278D0FFE70698AA
:1057000000684021C4F20201884270D0FFE7069889
:1057100000685821C4F20201884268D0FFE7069869
:1057200000687021C4F20201884260D0FFE7069849
:1057300000688821C4F20201884258D0FFE7069829
:105740000068A021C4F20201884250D0FFE7069809
:105750000068B821C4F20201884248D0FFE70698E9
:10576000006840F21041C4F2020188423FD0FFE7D6
:105770000698006840F22841C4F20201884236D0FF
:10578000FFE70698006840F24041C4F202018842F7
:105790002DD0FFE70698006840F25841C4F202019C
:1057A000884224D0FFE70698006840F27041C4F2B6
:1057B000020188421BD0FFE70698006840F288414A
:1057C000C4F20201884212D0FFE70698006840F256
:1057D000A041C4F20201884209D0FFE706980068A0
:1057E00040F2B841C4F20201884207D1FFE70698AF
:1057F0000168086840F00100086006E0069801684A
:10580000086840F001000860FFE70DE006994FF4DA
:1058100000604865FFE70699002081F83400FFE743
:1058200001208DF80B00FFE79DF80B008DF81F009D
:10583000FFE79DF81F0008B080BD000000000000D9
:1058400080B584B0039001F0EFFB029003980190C3
:105850000198013048B1FFE740F61430C2F2004031
:105860000178019808440190FFE7FFE701F0DCFBB5
:105870000299401A0199884201D2FFE7F6E704B085
:1058800080BD00000000000085B0039002910192ED
:10589000039890F898008DF803009DF80300012804
:1058A00005D0FFE79DF8030002285DD1FFE70298CD
:1058B00003990968896D084207D1FFE703980168D9
:1058C000C86D40F00100C86515E0029803990968A9
:1058D000896D08400299884207D1FFE70398016863
:1058E000C86D40F00200C86504E003980168032019
:1058F000C865FFE7FFE79DF809008007002809D584
:10590000FFE7019A03980168D1F8E0001043C1F85D
:10591000E000FFE79DF809004007002809D5FFE7F0
:10592000019A03980168D1F8E4001043C1F8E4003B
:10593000FFE7FFE702984FF6FF71C3F6CF7100EA69
:10594000010203980168486D10434865029A4AF6BF
:105950001401C4F20001086840EA92700860FFE791
:1059600000208DF813000AE00399D1F89C0040F064
:105970000200C1F89C0001208DF81300FFE79DF89C
:10598000130005B07047000082B00190009102B092
:10599000704700000000000087B005900491059852
:1059A00090F898008DF803009DF80300012805D0B9
:1059B000FFE79DF8030002286AD1FFE70498C0685A
:1059C000072801D1FFE7FFE70498006878BBFFE7ED
:1059D0000498C068072801D0FFE7FFE70498C06873
:1059E00007280CD1FFE7049A10699169D269000475
:1059F00040EA0220084340F0605003900CE0049914
:105A00008868CB680A694969800740EAC36040EA50
:105A1000024008430390FFE70598C06E0499496867
:105A200000EB810001900398019908602CE0049834
:105A3000C068072801D0FFE7FFE70498C168006944
:105A400040EA417003900498C068072804D1FFE73A
:105A500004988069029006E004988168406940EAF1
:105A600081700290FFE70598006F0499496800EB88
:105A7000C1000190039801990860019804300190D9
:105A8000029801990860FFE700208DF81B000AE0EA
:105A90000599D1F89C0040F00200C1F89C0001205B
:105AA0008DF81B00FFE79DF81B0007B07047000052
:105AB00085B0DDF814C00390029101920093039821
:105AC00090F89800012812D1FFE70298000101998F
:105AD00040EA8100009940EA410005990843039992
